:020000040800F2
:1000000028040020450100084F050008F3040008FB
:100010004D050008B9010008CD09000800000000E6
:100020000000000000000000000000005701000870
:10003000BB010008000000005B0100080907000880
:100040005F0100085F0100085F0100085F01000810
:100050005F0100085F0100085F0100085F01000800
:100060005F0100085F0100085F0100085F010008F0
:100070005F0100085F0100085F0100085F010008E0
:100080005F0100085F0100085F0100085F010008D0
:100090005F0100085F0100085F0100085F010008C0
:1000A0005F0100085F0100085F0100085F010008B0
:1000B0005F0100085F0100085F0100085F010008A0
:1000C0005F0100085F0100085F0100085F01000890
:1000D0005F010008350800085F0100085F010008A3
:1000E0005F0100085F0100085F0100085F01000870
:1000F0005F0100085F0100085F0100085F01000860
:100100005F0100085F0100085F0100085F0100084F
:100110005F0100085F0100085F0100085F0100083F
:100120005F0100085F0100085F0100085F0100082F
:10013000DFF80CD000F02EF800480047ED0B000867
:10014000280400200648804706480047FEE7FEE7EF
:10015000FEE7FEE7FEE7FEE7FEE7FEE7FEE7FEE777
:100160000D0700083101000830B50B46014600209C
:100170002022012409E021FA02F59D4205D303FA69
:1001800002F5491B04FA02F52844151EA2F10102EA
:10019000F1DC30BD064C074D06E0E06840F001039D
:1001A00094E8070098471034AC42F6D3FFF7C4FF39
:1001B000100C0008300C0008FEE7704770B50546CB
:1001C0004FF43026304600F059F8042811D1094C7C
:1001D000206940F0020020616561206940F0400024
:1001E0002061304600F04AF8216941F6FD72114065
:1001F000216170BD0020024008490420CA68D2076E
:1002000001D001207047CA68520701D5022070470B
:10021000C968C906FBD503207047000000200240D2
:100220000248016941F080010161704700200240ED
:10023000F0B506464FF400570D46384600F01EF85C
:1002400004280CD1064C206940F001002061358063
:10025000384600F013F82169BA1E11402161F0BD43
:100260000020024003480249416003494160704751
:100270002301674500200240AB89EFCD00B503465E
:10028000FFF7BAFF02E0FFF7B7FF5B1E012803D0BC
:10029000002B00D1052000BD002BF4D1FAE710B5EA
:1002A000002305E030F8024B21F813405B1C9BB2A1
:1002B0009342F7D310BD00007CB500240F4D00948D
:1002C000019429780E48012909D0022911D0032967
:1002D00004D111220B4900F021F82C707CBD2C7048
:1002E00004226946FFF7DBFF694607A000F070FBB8
:1002F0007CBD04490722C91FEDE70000080000206B
:1003000000400008FD0B00087265616420666C61A6
:1003100073683A202573200D0A0000002DE9F05F74
:1003200088463149154644188246082C01D2082DCA
:1003300007D9FFF775FF2DA000F04AFB0020BDE8AC
:10034000F09FFFF78FFFE708C4F34106C6F10404EE
:1003500021462EA000F03CFBA54200D82C46DFF839
:10036000C4B021480422404200EBC70081462D4919
:10037000FFF795FF00204FF6FF7106E033183BF8BA
:1003800013208A4203D1401C80B2A042F6D3A0427F
:1003900020D24846FFF712FF0020594606E038F801
:1003A00010208319401C21F8132080B2A042F6D3FC
:1003B000484604221B4900F037F8A54210D0281BFC
:1003C000002685B27F1C08EB4408A244042D05D901
:1003D0000424C6E7224641465046ECE72C46C0E7D7
:1003E000FFF71EFF0120AAE700C0FFF7696C6C65EC
:1003F00067616C2061646472657373206F72206F33
:100400007065726174696F6E0D0A000068616C66D8
:10041000776F72642072656D61696E3A2025642081
:100420000D0A0000000000202DE9F04116460F469D
:100430000546002407E037F814102846FFF7F8FEB9
:10044000641CA4B2AD1CB442F5D3BDE8F081F0B594
:10045000CC78002204F00F03E40601D58C78234306
:100460000C784FF00F0C14F0FF0F4FF0010E1BD063
:1004700005680E880EFA02F42640A64210D19600B6
:100480000CFA06F725EA070703FA06F5CE783D438E
:10049000282E02D0482E02D002E0446100E0046120
:1004A000521C082AE5D305600A88FF2A1CD9446833
:1004B000002202F108060EFA06F50E882E40AE4222
:1004C0000ED196000CFA06F7BC4303FA06F7CE7875
:1004D0003C43282E00D14561CE78482E00D10561DD
:1004E000521C082AE5D34460F0BD416170470161A8
:1004F0007047FEE7F8B50121242000F05BF80420E6
:10050000ADF8000010208DF8030003200D4D8DF88C
:10051000020069462846FFF79AFF0B4EAC15ADF86E
:10052000004069463046FFF792FF04212846FFF756
:10053000DEFF21463046FFF7DAFF21463046FFF75F
:10054000D4FFF8BD0014014000080140FEE77047E9
:1005500030B50F23C27801780125F2B1144A126830
:1005600001F1E02102F4E062C2F5E062120AC2F198
:100570000404D3404278A24084781C4014432201F2
:1005800081F80024007800F01F018D4040098000B0
:1005900000F1E020C0F8005130BD01F01F0085409F
:1005A0004809800000F1E020C0F8805130BD000013
:1005B0000CED00E0044A0029916901D0014300E0FC
:1005C00081439161704700000010024030B5204A1D
:1005D0005168204B11F00C0103D0042901D00829E7
:1005E00001D0036012E05168536801F470114FF0BC
:1005F000020413F4803F04EB914102D053689B0343
:1006000001D5154B00E0134B5943016051680F238E
:1006100003EA1111114B5C5C0168E14041605468D0
:10062000072505EA14241C5D21FA04F4846054684B
:1006300005EAD4241B5DD940C1605268032303EA54
:100640009232064B1B1F9A5CB1FBF2F1016130BD87
:100650000010024000127A0000093D000D00002049
:100660000CB50022264800920192016841F48031C5
:1006700001604FF4A063016801F400310191009919
:10068000491C0091019911B900999942F3D101686F
:10069000890333D5012101911A490A6842F01002F9
:1006A0000A600A6822F003020A600A6842F0020245
:1006B0000A604168416041684160416841F480617D
:1006C0004160416821F47C114160416841F4E811C6
:1006D0004160016841F08071016001688901FCD5C9
:1006E000416821F003014160416841F0020141602D
:1006F0004168C1F381010229FAD10CBD01920CBD00
:100700000010024000200240704700000F4810B562
:10071000016841F00101016041680D4A11404160EA
:1007200001680C4A11400160016821F480210160D8
:10073000416821F4FE0141604FF41F018160FFF721
:100740008FFF05494FF00060086010BD00100240A7
:100750000000FFF8FFFFF6FE08ED00E010B54FF4D3
:10076000E13000F013F8FFF7C5FEBDE8104001A02E
:1007700000F02EB9426F6F744C6F6164657220692E
:100780006E69742E2E2E200D0A00000030B504462E
:1007900087B001210420FFF70DFF01218803FFF737
:1007A00009FF4FF40071ADF8101018218DF81310E7
:1007B00003201E4D8DF8120004A92846FFF747FEBE
:1007C0002815ADF8100004218DF8131004A928464F
:1007D000FFF73DFE0020ADF804000094ADF80600E0
:1007E000ADF80800ADF80C000C20114CADF80A0073
:1007F0006946204600F08CF825218DF8141002205F
:100800008DF8150001218DF816108DF8171005A828
:10081000FFF79EFE012240F22551204600F060F8CD
:100820000121204600F02CF807B030BD000801403F
:100830000038014070B50D4C40F225552946204640
:1008400000F02FF800280FD0204600F0B7F8084E2F
:10085000012229463070204600F042F83178BDE888
:10086000704004A000F0B4B870BD00000038014032
:100870000800002025642E2E2E2E200D0A000000D8
:100880000029818902D041F4005101E021F4005196
:10089000818170470246002012880A4200D0012060
:1008A000704770B501F01F0501260024C1F3421303
:1008B00006FA05F2012B0FD0022B0FD0838A4FEAE4
:1008C00011210088134206FA01F600EA060001D061
:1008D00000B10124204670BD8389F0E7038AEEE76A
:1008E00010B5C1F3421301F01F040121A140012BF7
:1008F00007D0022B07D01430002A026805D00A4323
:1009000004E00C30F8E71030F6E78A43026010BDCF
:1009100030B50446008A85B00D464CF6FF7108409C
:10092000E98801432182A0894EF6F3110840A98885
:100930002A8911436A8902431143A181A08A4FF693
:10094000FF410840A9890143A1826846FFF73EFEA6
:100950001948844201D1039800E00298A189090452
:1009600000EBC00101EB0010296801D5490000E04F
:100970008900B0FBF1F06422B0FBF2F109010B0930
:100980006FF018056B4300EB8300A3891D044FF043
:10099000320306D503EBC000B0FBF2F000F0070015
:1009A00005E003EB0010B0FBF2F000F00F0008438D
:1009B000208105B030BD0000003801408088C0F3C0
:1009C00008007047C1F3080181807047FEE700000E
:1009D0000FB4054B10B503A9044A029800F018F8AB
:1009E00010BC5DF814FB0000C90B000820000020BB
:1009F00002E008C8121F08C1002AFAD170477047E8
:100A0000002001E001C1121F002AFBD17047000045
:100A10002DE9FF4F8BB09A460F460546002606E0AB
:100A200025280BD052460D9990476D1C761C2878CE
:100A30000028F5D10FB03046BDE8F08F0024A04665
:100A40000122604900E0044315F8013F203B02FA0F
:100A500003F00842F7D128782E2817D115F8010F96
:100A600044F004042A280ED06FF02F022878A0F159
:100A7000300109290AD808EB880102EB410100EB9B
:100A800001086D1CF2E757F8048B6D1C2878692863
:100A90003ED006DC0028CDD063280BD0642804D1DA
:100AA00036E0732810D075284BD052460D999047E8
:100AB000761C85E017F8040B8DF8000000208DF8F7
:100AC0000100E946012003E057F8049B4FF0FF3096
:100AD00061074FF0000401D40AE0641C44450DDABC
:100AE0008442FADB19F804100029F6D106E0641CF0
:100AF0008442FCDB19F804100029F8D1264404E0F4
:100B000019F8010B52460D999047641EF8D257E030
:100B100001CF4FF00A0B002802DA40422D2102E0FB
:100B2000210504D52B218DF82410012103E0E107D4
:100B300005D02021F7E70DF1200908910CE00021F4
:100B4000F9E701CF4FF00A0BF9E75946FFF70CFB25
:100B500001F1300209F8012D0028F6D1ADEB0900B2
:100B600000F1200B600701D44FF00108D84502DDE9
:100B7000A8EB0B0000E000208046002406E009A856
:100B80005246005D0D999047641C761C089884427B
:100B9000F5DB04E0302052460D999047761CB8F101
:100BA0000001A8F10108F5DC05E019F8010B524637
:100BB0000D999047761CBBF10001ABF1010BF4DC01
:100BC0006D1C34E70928010070B5074D0446C1B219
:100BD0002846FFF7F7FE40212846FFF75BFE002876
:100BE000F9D0204670BD000000380140FFF7B6FD87
:100BF000FFF762FBFCE753616E6765720053544D6B
:100C0000333220464C415348205445535400000091
:100C1000300C00080000002024000000F00900084B
:100C2000540C00082400002004040000000A0008FE
:100C300000000000000000000002040608000000A0
:100C40000001020304010203040607080900000072
:040C500000000000A0
:0400000508000131BD
:00000001FF
