:020000040800F2
:10000000400C00204D0100088D0700081F07000864
:100010008907000837020008030E000800000000EE
:100020000000000000000000000000005F01000868
:100030003B0200080000000063010008C50A000838
:1000400067010008670100086701000867010008F0
:1000500067010008670100086701000867010008E0
:1000600067010008670100086701000867010008D0
:1000700067010008670100086701000867010008C0
:1000800067010008670100086701000867010008B0
:1000900067010008670100086701000867010008A0
:1000A0006701000867010008670100086701000890
:1000B0006701000867010008670100086701000880
:1000C0006701000867010008670100086701000870
:1000D00067010008050C00086701000867010008B7
:1000E0006701000867010008670100086701000850
:1000F0006701000867010008670100086701000840
:10010000670100086701000867010008670100082F
:10011000670100086701000867010008670100081F
:10012000670100086701000867010008670100080F
:10013000DFF80CD000F04EF800480047B913000873
:10014000400C002080F30888704700000648804774
:1001500006480047FEE7FEE7FEE7FEE7FEE7FEE7AC
:10016000FEE7FEE7FEE7FEE7C90A000831010008E6
:100170002DE9F05F0546002092469B4688460646DC
:10018000814640241BE0284641464746224600F06F
:1001900042F853465A46C01A914110D311461846A8
:1001A000224600F029F82D1A67EB01084F46224637
:1001B0000120002100F020F817EB00094E41201E1D
:1001C000A4F10104DFDC484631462A464346BDE837
:1001D000F09F0000064C074D06E0E06840F0010388
:1001E00094E8070098471034AC42F6D3FFF7A4FF19
:1001F000A8150008C8150008202A04DB203A00FAD8
:1002000002F1002070479140C2F1200320FA03F36D
:10021000194390407047202A04DB203A21FA02F06B
:100220000021704721FA02F3D040C2F12002914030
:1002300008431946704700BFFEE7704730B50446D3
:1002400004254FF4302000F051F90546042D17D154
:100250000C48006940F002000A4908610846446100
:10026000006940F0400008614FF4302000F03EF992
:1002700005460448006941F6FD71084001490861DE
:10028000284630BD0020024004200B49C96801F017
:10029000010109B101200EE00749C96801F004011C
:1002A00009B1022007E00449C96801F0100109B151
:1002B000032000E00420704700200240034800694A
:1002C00040F08000014908617047000000200240B2
:1002D0002DE9FC5F07468B4616463648874202D317
:1002E0003548874206D3FFF7E9FF34A000F08CFDC4
:1002F000BDE8FC9F00F0EEF8A7F1006A4FEADA24AF
:10030000CAF34908C8F5806537A000F07DFD234693
:10031000524639463F48CDE9008500F075FDAE42B2
:1003200000DC354640E04FF0006101EBC4204A1488
:10033000394900F0EFF84FF0006101EBC420FFF7FE
:100340007DFF4FF000090AE03BF8190009EB0801B6
:10035000314A22F8110009F101001FFA80F9A9457C
:10036000F2DB2EA000F050FD4FF0006101EBC42045
:100370004A14294900F0F8F8AE4203D12FA000F04A
:1003800043FD12E0641C4FF000080BEB450B2F44BB
:10039000701B86B2B6F5806F02DD4FF4806500E019
:1003A000354632A000F030FDBDE700BFFFF786FF05
:1003B00000BF9DE700400008000004085B666C6118
:1003C00073685D5B4F54415D20696C6C6567616C5F
:1003D0002061646472657373206F72206F70657240
:1003E0006174696F6E0D0A005B666C6173685D5BBA
:1003F0004F54415D20737461727420746F20777262
:10040000697465206F74612062696E2E2E2E0D0A4C
:10041000000000004C1500083C0000205B666C6189
:1004200073685D5B4F54415D206E65656420657245
:100430006173652E2E2E0D0A000000005B666C6154
:1004400073685D5B4F54415D20464C4153485F4F9C
:1004500054415F42696E5F57726974652066696EC8
:100460006973682E2E2E0D0A000000005B666C6119
:1004700073685D5B4F54415D206E657874207365D1
:1004800063746F7220746F207772697465202E2EEA
:100490002E0D0A0070B504460D460426F00200F049
:1004A00025F80646042E11D10948006940F00100E4
:1004B000074908612580F00200F018F80646044854
:1004C000006941F6FE71084001490861304670BD7F
:1004D00000200240024803494860034848607047D2
:1004E0002301674500200240AB89EFCD00B50246ED
:1004F0000423FFF7C9FE034603E0FFF7C5FE0346EA
:10050000521E012B01D1002AF7D102B9052318464A
:1005100000BD00002DE9F04107460D46164608A033
:1005200000F072FC002407E0384600F019F825F8C6
:100530001400BF1C601C84B2B442F5DBBDE8F0813E
:100540005B666C6173685D5B4F54415D20466C6116
:1005500073685F526561642E2E2E0D0A0000000044
:1005600001460888704700002DE9F04105460E4617
:1005700017460BA000F048FC00240DE036F81420CC
:10058000294611A000F040FC36F814102846FFF769
:1005900081FFAD1C601C84B2BC42EFDBBDE8F08182
:1005A0005B666C6173685D5B4F54415D20466C61B6
:1005B00073685F57726974655F4E6F436865636BFC
:1005C0002E2E2E0D0A0000005B666C6173685D5B69
:1005D0004F54415D204E6F436865636B20577269CD
:1005E0007465416464723A203078253038582C2084
:1005F000646174613A2025303478200D0A000000CF
:100600002DE9F041024600250026002000230024A9
:10061000002791F803C00CF00F0591F803C00CF00F
:10062000100CBCF1000F03D091F802C04CEA050594
:1006300091F800C0BCF1000F31D0146800202BE00D
:100640004FF0010C0CFA00F3B1F800C00CEA0306FD
:100650009E4220D183004FF00F0C0CFA03F7BC43ED
:1006600005FA03FC4CEA040491F803C0BCF1280F1E
:1006700006D14FF0010C0CFA00FCC2F814C00AE0DD
:1006800091F803C0BCF1480F05D14FF0010C0CFAF2
:1006900000FCC2F810C0401C0828D1D31460B1F887
:1006A00000C0BCF1FF0F34DD546800202EE000F1E3
:1006B000080C4FF0010808FA0CF3B1F800C00CEA7E
:1006C00003069E4221D183004FF00F0C0CFA03F772
:1006D000BC4305FA03FC4CEA040491F803C0BCF1E6
:1006E000280F05D100F1080C08FA0CF8C2F81480A4
:1006F00091F803C0BCF1480F07D100F1080C4FF08E
:10070000010808FA0CF8C2F81080401C0828CED363
:100710005460BDE8F081416170470161704700BFDE
:10072000FEE7000008B50121242000F0C9F80420EC
:10073000ADF8000010208DF8030003208DF80200B2
:1007400069460F48FFF75CFF4FF48070ADF800007A
:1007500069460C48FFF754FF04210948FFF7DDFF05
:100760004FF480710748FFF7D8FF4FF480710548B8
:10077000FFF7D1FF04210248FFF7CDFF08BD0000BD
:10078000001401400008014000BFFEE77047000070
:1007900070B5002100230F22C47804B3154C2468DF
:1007A00004F4E064C4F5E064210AC1F10403CA4022
:1007B000447804FA03F184781440214309010E4C73
:1007C0000678A155047804F01F050124AC40057893
:1007D0006D11AD0005F1E025C5F8004109E0047890
:1007E00004F01F050124AC40044D0678761145F84D
:1007F000264070BD0CED00E000E400E080E100E088
:100800002DE9F84F074688469146002400250097B9
:10081000464600BF25E070784FEA002A3078504401
:100820001FFA80FAB61C2846691C8DB2144921F8BB
:1008300010A0B5F5806F12D1A346E01704EB9050DD
:10084000811210A000F0E0FA00254FF480620C49FC
:100850000098FFF73DFD009800F500600090A01C97
:1008600084B24C45D7D345B129460DA000F0CCFA4F
:100870002A4603490098FFF72BFDBDE8F88F0000DA
:1008800000B800204F54412062696E20696E202517
:10089000646B2068616C662D776F72640D0A0000CE
:1008A0004F54412062696E2072656D61696E20252A
:1008B000642068616C662D776F72640D0A00000019
:1008C00029B1064A92690243044B9A6104E0034A43
:1008D00092698243014B9A61704700000010024008
:1008E00030B500210022002400232D4D6D6805F055
:1008F0000C0121B1042905D0082923D105E0294D97
:10090000056022E0274D05601FE0254D6D6805F468
:100910007012234D6D6805F48034022505EB924278
:100920001CB9214D554305600BE01D4D6D6805F464
:1009300000351DB11C4D5543056002E0194D55436E
:10094000056002E0174D056000BF00BF144D6D68E3
:1009500005F0F0010909154D6B5C0568DD40456047
:100960000F4D6D6805F4E061090A104D6B5C456838
:10097000DD4085600A4D6D6805F46051C90A0B4D74
:100980006B5C4568DD40C560054D6D6805F4404110
:10099000890B074D6B5CC568B5FBF3F5056130BD90
:1009A0000010024000127A0000093D000E000020F5
:1009B0001E00002010B500F001F810BD0CB500209D
:1009C000019000903348006840F48030314908605D
:1009D00000BF3048006800F4003000900198401CCF
:1009E0000190009818B90198B0F5A06FF1D129488D
:1009F000006800F4003010B10120009001E00020F8
:100A000000900098012843D12348006840F010006E
:100A1000214908600846006820F003000860084685
:100A2000006840F0020008601A48406819494860B0
:100A30000846406848600846406840F48060486066
:100A40000846406820F47C1048600846406840F43E
:100A5000E81048600846006840F08070086000BFF9
:100A60000C48006800F000700028F9D00948406880
:100A700020F00300074948600846406840F0020043
:100A8000486000BF0348406800F00C000828F9D116
:100A90000CBD00000010024000200240042808D1D4
:100AA0004FF0E021096941F004014FF0E0221161AB
:100AB00007E04FF0E021096921F004014FF0E02246
:100AC000116170477047000010B51348006840F08E
:100AD00001001149086008464068104908400E4965
:100AE0004860084600680E4908400B4908600846FF
:100AF000006820F4802008600846406820F4FE006A
:100B000048604FF41F008860FFF754FF4FF000600B
:100B10000449086010BD0000001002400000FFF80A
:100B2000FFFFF6FE08ED00E010B54FF4E13000F0F5
:100B300015F8FFF7F7FD00F0B9FB02A000F064F92B
:100B400010BD000020426F6F744C6F6164657220AD
:100B5000696E69742E2E2E200D0A000010B586B025
:100B6000044601210420FFF7ABFE01218803FFF7B3
:100B7000A7FE4FF40070ADF8140018208DF8170090
:100B800003208DF8160005A91C48FFF739FD4FF426
:100B90008060ADF8140004208DF8170005A91748EF
:100BA000FFF72EFD01940020ADF80800ADF80A0013
:100BB000ADF80C00ADF810000C20ADF80E0001A946
:100BC0000F4800F0A9F825208DF8000002208DF8CC
:100BD000010001208DF802008DF803006846FFF740
:100BE000D7FD012240F22551054800F070F801219F
:100BF000034800F029F806B010BD000000080140CD
:100C00000038014010B5002440F225510B4800F097
:100C100034F888B1094800F0EBF8C4B208480088FD
:100C2000B0F5284F08DA07480549098844540448B4
:100C30000088401C0249088010BD000000380140B7
:100C40000C0000200010002021B1828942F40052E3
:100C5000828104E082894DF6FF731A4082817047D9
:100C600002460020B1F5007F00D100BF13880B4081
:100C70000BB1012000E00020704770B5024600244F
:100C800000230025002040F66A16B14200D100BFC3
:100C9000C1F3421501F01F03012606FA03F3012DEB
:100CA00002D19689334006E0022D02D1168A3340E4
:100CB00001E0968A33400C12012606FA04F41688E5
:100CC000344013B10CB1012000E0002070BDF0B53C
:100CD0000346002400260025002040F66A17B9428A
:100CE00000D100BF1846C1F3421401F01F060127CE
:100CF00007FA06F5012C01D10C3004E0022C01D1D9
:100D0000103000E014301AB107682F43076002E08A
:100D10000768AF430760F0BD2DE9F04786B0054690
:100D20000E460024A24600BFA1460027B08900B1AC
:100D300000BF2F462C8A4CF6FF700440F088044315
:100D40002C82AC894EF6F3100440B08831890843F8
:100D5000718908430443AC81AC8A4FF6FF400440DC
:100D6000B0890443AC8201A8FFF7BAFD1F4887424F
:100D700002D1DDF810A001E0DDF80CA0A88900F494
:100D8000004040B10AEBCA0000EB0A10316849008C
:100D9000B0FBF1F807E00AEBCA0000EB0A1031687B
:100DA0008900B0FBF1F86420B8FBF0F004012009E1
:100DB000642101FB1089A88900F4004040B1322071
:100DC00000EBC900B0FBF1F000F00700044308E0BD
:100DD000322000EB09106421B0FBF1F000F00F00AD
:100DE00004432C8106B0BDE8F087000000380140C4
:100DF00001468888C0F308007047C1F3080282806A
:100E0000704700BFFEE700000FB4054B10B503A903
:100E1000044A029800F018F810BC5DF814FB0000BA
:100E20003D1300083800002002E008C8121F08C166
:100E3000002AFAD170477047002001E001C1121F5B
:100E4000002AFBD1704700002DE9FF4F8DB00F46FF
:100E50000546002606E025280BD0DDE90F12904755
:100E60006D1C761C28780028F5D111B03046BDE8FD
:100E7000F08F0024A246A1460122EC4900E0044381
:100E800015F8013F203B02FA03F00842F7D1287819
:100E90002A2810D06FF02F022878A0F130010929FC
:100EA00014D80AEB8A0102EB410144F0020400EB82
:100EB000010A6D1CF0E701CF5FEA000A03D544F494
:100EC0000054CAF1000A44F002046D1C28782E2850
:100ED00017D115F8010F44F004042A280ED06FF042
:100EE0002F022878A0F1300109290AD809EB8901DD
:100EF00002EB410100EB01096D1CF2E757F8049B7E
:100F00006D1C28786C280FD006DC4C2817D0682878
:100F10000DD06A2814D104E0742810D07A280FD19B
:100F20000DE044F400140AE044F4801401E044F4B9
:100F300040146978814202D104F580146D1C6D1C47
:100F40002A786E2A1FD00CDC632A31D004DC002AF8
:100F50008BD0582A11D1A3E0642A68D0692A0CD119
:100F600065E0732A2ED004DC6F2A73D0702A04D176
:100F70009BE0752A6FD0782A6ED01046DDE90F12FB
:100F80009047761C50E1C4F30250022806D0032893
:100F900009D0042801CF09D0066045E101CFF1173F
:100FA000C0E9006140E101CF06803DE106703BE110
:100FB00017F8040B8DF8000000208DF80100EB46B7
:100FC000012003E057F804BB4FF0FF3061074FF0FA
:100FD000000102D40DE008F10101884649450FDA0D
:100FE0008045F8DB1BF808100029F4D108E008F16F
:100FF000010188468142FADB1BF808100029F6D16E
:10100000DDE90F23AAEB08008146214600F036F9FE
:10101000304400EB080604E0DDE90F121BF8010B79
:101020009047B8F10108F7D221464846F7E00A2177
:10103000C4F302534FF0000B0891022B04D001CFF0
:10104000C117032B09D00AE0FF1D27F00707F7E8B7
:10105000020108E032E01FE020E000B2C117042BDB
:1010600001D140B2C117031E71F1000307DA4FF03E
:10107000000CD0EB0C006CEB01012D2302E02305EA
:1010800004D52B238DF82430012303E0E30701D09E
:101090002023F7E7984658E00A2110E010210EE0DF
:1010A00010204FF0000B08900CE010214FF0000BC7
:1010B00044F004044FF00809089103E008214FF0C0
:1010C000000B0891C4F30253022B04D001CF00217E
:1010D000032B06D006E0FF1D27F00707F7E8020103
:1010E00003E080B2042B00D1C0B24FF00008230708
:1010F0002BD5702A07D0DDF820C08CF0100C5CEAEC
:101100000B0C05D00EE040238DF82430012308E0BD
:1011100050EA010306D030238DF824308DF82520C5
:1011200002239846DDF820C08CF0080C5CEA0B0C1A
:101130000BD150EA010301D1630706D530238DF8A6
:1011400024304FF00108A9F10109582A04D038A22F
:101150000B9208AA0A920BE03AA2F9E75B46089ABA
:10116000FFF706F80B9B9B5C0A9A521E0A921370BB
:1011700050EA0102F2D10A98ADEB000000F1200B19
:10118000600702D524F4803401E04FF00109D9450D
:1011900002DDA9EB0B0000E0002000EB0B01414455
:1011A0000890AAEB010AE00306D4DDE90F232146EB
:1011B000504600F063F806444FF0000908E009A922
:1011C00011F80900DDE90F12904709F10109761CB9
:1011D000C145F4DBE0030CD5DDE90F232146504681
:1011E00000F04CF8064404E0DDE90F12302090478F
:1011F000761C0899481E08900029F5DC08E00A983A
:101200000A990078491C0A91DDE90F129047761C73
:10121000BBF10001ABF1010BF1DC21465046DDE9E9
:101220000F2300F019F806446D1C1BE60928010085
:10123000303132333435363738396162636465664C
:10124000000000003031323334353637383941420E
:1012500043444546000000002DE9F04104460025C6
:101260001E461746880404D405E039462020B047BE
:101270006D1C641EF9D52846BDE8F0812DE9F041CA
:10128000044600251E469046C80301D5302700E0DD
:101290002027880404D505E041463846B0476D1C38
:1012A000641EF9D52846BDE8F081000010B56FF046
:1012B0000400FFF7F3FB0A4800680A49B0FBF1F0AD
:1012C000094908700846007800EB4001C1EBC010E6
:1012D0004FF6FF7101EAC0000449088010BD00000C
:1012E0002400002000127A000400002006000020E4
:1012F0000146114A12884A434FF0E0235A61002206
:101300009A611A46126942F001021A6100BF4FF059
:10131000E022106900F001021AB100F48032002AC4
:10132000F5D04FF0E022126922F001024FF0E023E5
:101330001A6100229A6170470600002070B50446C9
:101340000D46E1B20548FFF758FD00BF40210348B4
:10135000FFF786FC0028F9D0204670BD0038014018
:1013600010B5044620680B490840B0F1005F09D170
:101370006068094908602068FEF7E4FE06480068D6
:10138000804706E02068034A00EA020103A0FFF755
:101390003BFD10BD0000FE2F00000020696C6C6555
:1013A00067616C206F74612062696E204D53503A02
:1013B000202578200D0A0000002500240126FFF7D3
:1013C000B3FB57E0002E1FD02B480088C0B12A483D
:1013D0000088854212D1284804880025002026492B
:1013E000088026A0FFF710FD214629A0FFF70CFD7D
:1013F00000264FF47A70FFF77BFF01E01E48058856
:101400000A20FFF775FF35E02648406800F07F406E
:10141000B0F1006F25D124A0FFF7F6FC2246274942
:101420002748FFF7EDF927A0FFF7EEFC244929A094
:10143000FFF7EAFC4FF47A70FFF75AFF2048406844
:1014400000F07F40B0F1006F03D11D48FFF788FF27
:101450000AE01B48406800F07F4125A0FFF7D4FC5C
:1014600002E02DA0FFF7D0FC32A0FFF7CDFC012653
:1014700001480588A6E700000C000020D3C3BBA7E5
:10148000B3CCD0F2BDD3CAD5CDEAB3C9210D0A0081
:10149000B4FAC2EBB3A4B6C83A2564427974657352
:1014A0000D0A000000100020BFAACABCB8FCD0C2C0
:1014B000B9CCBCFE2E2E2E0D0A000000001000201C
:1014C00000400008B9CCBCFEB8FCD0C2CDEAB3C91C
:1014D000210D0A00464C4153482046572072756E34
:1014E0006E696E673A20307825303258200D0A0038
:1014F000696C6C6567616C206F74612062696E2035
:10150000464C4153485F46575F414444523A202578
:1015100078200D0A000000006974206973206E6F46
:101520007420465720666C6173682062696E2E2EA7
:101530002E0D0A0072652D737461727420726563DA
:10154000696576652E2E2E0D0A0000005B666C61C3
:1015500073685D5B4F54415D2057726974654164E7
:1015600064723A203078253038582C206F666661D6
:101570006464723A203078253038582C20736563C3
:10158000706F733A2025642C207365636F66663A2A
:101590002025642C2073656372656D61696E3A2045
:1015A0002564200D0A000000C81500080000002076
:1015B0003C000000280E0008041600083C00002033
:1015C000C4BF0000380E000800000000000000004A
:1015D00000000000000000000000010203040102FE
:1015E00003040607080902040608000000A24A04D2
:1015F00000000000000000000102030406070809C3
:0416000000000000E6
:0400000508000131BD
:00000001FF
